:1011000082EF08F0CCEF7FF0FF00FF00FF00FF0050
:10FF9000FF00FF00FF00FF000001CFEF7FF0066AC7
:10FFA000076A086A096AD38CD38AD388D3849B8C66
:10FFB000939206280DE1170E071808100910D8A40F
:10FFC00007D08A82062A000E072208220922F1D7CA
:10FFD000062808E18F0E071808100910D8A402D0CF
:10FFE0008A92F0D70628EEE10728ECE1040E081803
:10FFF0000910D8A4E7D7066A076A086A096AD9D738
:020000040020DA
:08000000FFFFFFFFFFFFFFFF00
:020000040030CA
:0E00000015586F20FF8991FF0FC00FE00F40D1
:00000001FF
