:101000000FEF08F0FF00FF00F2A411008A74F294C1
:10101000F00E026E000E016A65EC08F011006EEF32
:1010200008F0096A0A6A0B6A0C6AD38CD38AD388DF
:10103000D3849B8C970E4EEC08F0F00E066E000EDB
:10104000056A5CEC08F0F294F28E9392939409286E
:101050000DE1170E0A180B100C10D8A407D08A82C5
:10106000092A000E0A220B220C22F1D7092808E1D6
:101070008F0E0A180B100C10D8A402D08A92F0D749
:101080000928EEE10A28ECE1040E0B180C10D8A494
:10109000E7D7096A0A6A0B6A0C6AD9D7056E055048
:1010A0007F0BD56ED76AD66AF29405AE02D0F28A6B
:1010B00001D0F29AD58E120005C007F006C008F0E4
:1010C00008C0D7FF07C0D6FF120001C003F002C05E
:1010D00004F004C0D7FF03C0D6FF1200000111EFD7
:1010E00008F0FF00FF00FF00FF00FF00FF00FF000F
:020000040020DA
:08000000FFFFFFFFFFFFFFFF00
:020000040030CA
:0E00000015586F20FF8991FF0FC00FE00F40D1
:00000001FF
